:100000000C94D6010C94F3010C94F3010C94F301BD
:100010000C94F3010C94F3010C94F3010C94F30190
:100020000C94F3010C94F3010C94301E0C94041FF7
:100030000C94AF180C94F3010C94F3010C94F3019D
:100040000C94F3010C94F3010C94F3010C94F30160
:100050000C94F3010C9436190C94F3010C94F301F5
:100060000C94F3010C94F3010C94F3010C94F30140
:100070000C94F3010C94F3010C94F3010C94F30130
:100080000C94F3010C94F3010C94F3010C94F30120
:100090000C94F3010C94F3010C94F3010C94F30110
:1000A0000C94F3010C94F3010C94F3015300280019
:1000B00049005F00600061005C005D005E00590067
:1000C0005A005B0001000100010001000100010075
:1000D000010001000100010001000100FD377A5814
:1000E0005A000004E6D6B4460200210116000000C2
:1000F000742FE5A3E000D100905D003D8889C654CF
:1001000036C3174FE4FA8914714718C59E51700D14
:1001100001065BF5D4396E08C98A616B0F31A9C03D
:10012000E716BB60997C3AD9786D22BD77E18F41A3
:1001300036153B64D3CAE64A68FCC71364328DAEF9
:10014000EC1908199F8D0E926FA718859A9FA481AC
:1001500008F87B0376CB15DD7FAD0835BD75040D42
:10016000B3148DE22FE76DB97CF9DA5E9EC5569522
:10017000006E81083DB93E0EDE84657B04F9D13DF9
:100180006DEB929CB5001FCF59016F00A70990CE6F
:100190005D37F5820001AC01D2010000DD37741D2E
:1001A000B1C467FB020000000004595A00000000BF
:1001B000000000002A2B28000000000000000000C2
:1001C0000000000000000029000000002C1E342068
:1001D000212224342627252E362D3738271E1F208E
:1001E0002122232425263333362E37381F040506D3
:1001F0000708090A0B0C0D0E0F1011121314151617
:100200001718191A1B1C1D2F3130232D3504050614
:100210000708090A0B0C0D0E0F10111213141516F6
:100220001718191A1B1C1D2F3130354C0000000007
:1002300000000000000000000000000000000000BE
:1002400000000000000000000000000000000000AE
:100250007E0F00D4FFFFFFC7000000781C0376006C
:10026000690061006C003A006600360034006300EB
:100270003200620033006300000012037400750056
:10028000740065006C0070006100640000000E03E3
:1002900061007200660069006B006F0000000403DB
:1002A000090409025B00030100A0FA09040000012F
:1002B000030101000921110100012240000705810D
:1002C00003080001090401000203000000092111D4
:1002D0000100012222000705820320000107050317
:1002E000032000010904020001030000000921119C
:1002F000010001223B0007058403200001120100D8
:100300000200000008EEEE192000010102030106C0
:1003100060FF0961A1010962150026FF00952075A3
:100320000881020963150026FF00952075089102D7
:10033000C005010906A1018506050719E029E71591
:100340000025019508750181020507190029EF159F
:1003500000250195F075018102050819012905950F
:100360000575019102950175039101C0050109060A
:10037000A101050719E029E7150025019508750178
:1003800081029501750881010507190029FF1500F3
:1003900026FF0095067508810005081901290595B5
:1003A0000575019102950175039101C011241FBECD
:1003B000CFEFDAE0DEBFCDBF11E0A0E0B1E0EAEFC1
:1003C000F2E402C005900D92AE32B107D9F722E0F7
:1003D000AEE2B1E001C01D92A032B207E1F70E9487
:1003E000F2100C9457210C94000082E008959C01B7
:1003F0003A9521153F4150F5FC01EE27F170BC0103
:1004000066277270AC01442754709C012227387013
:1004100094FF0EC080E1EF2B09F480E0672B09F018
:100420008062452B09F08064232B89F08068089551
:1004300081E0EF2B09F480E0672B09F08260452B07
:1004400009F08460232B19F08860089580E00895F6
:10045000CF93DF93EB010E94F701FE010995DF9135
:10046000CF910895CF93DF93EC01805E91090897B7
:1004700020F06FE876E0209711F468E474E0CE0194
:100480000E9428028C2F0E94D303DF91CF91089500
:10049000CF93DF93EC010E94FD03CE01805E9109B2
:1004A000089720F066E976E0209711F46FE474E095
:1004B000CE010E942802DF91CF91089581E0089536
:1004C00081E008950E946002089508950E946502E7
:1004D0000895A5E0B0E0EFE6F2E00C94C720498370
:1004E0005A833091350189819A81311119C066236F
:1004F00099F0222389F00E94D907182F682F89814B
:100500009A810E94B50769817A81812F0E945415D2
:100510002596E3E00C94E3200E94C707182FF3CF41
:100520000E94D90769817A81F1CFFC01262F408191
:1005300051816281738184810E946902089581E002
:100540000895CF93DF93EC0160E00E949502BE0115
:100550000E946602DF91CF910895E1E0F0E0DF01B3
:1005600002C0AA0FBB1F6A95E2F7BD01DF0102C0FE
:10057000AA0FBB1F4A95E2F76A2B01C0EE0F2A951E
:10058000EAF7962F9823961302C08E2B0895E095D4
:100590008E230895242F462F682F80913C010E94BE
:1005A000AD020E94150708950E949C0F08950E94B5
:1005B000A00F089508950E94A7060E94DA022FEF67
:1005C00084E39CE0215080409040E1F700C00000AF
:1005D00008950E94DB020E945A1908950E94DB02CE
:1005E0000E946B1908950F931F93CF93DF93EC0133
:1005F0008B010E946411811106C080E0DF91CF91D0
:100600001F910F910895B801CE010E941D148823F7
:10061000A1F3B801CE010E946202882371F3F801B0
:100620008281882361F0CA35FDE5DF0701F158F4C6
:10063000C115ECE5DE0791F0CE3DDC4591F0C80137
:100640000E945E02DBCFCC358DE5D80769F090F0D3
:10065000C73ADD45A1F70E94EE02CFCF0E94E90222
:10066000CCCF0E94E60CF7CF0E94200CE8CF0E946E
:100670002A0CE5CF0E942E0CE2CFCF93DF93EC0142
:1006800061E00E949502BE010E94F302DF91CF91CA
:1006900008950E948C180E94660308950E946A03C0
:1006A0000E949118089508950E945303089581E0CF
:1006B00008950E94570308950895CF93C82F0E946C
:1006C00054038C2F0E945903CF91089580E00E941B
:1006D0005D0308950E9455170E945D030895CF930E
:1006E0000E945517C82F809130018C1779F0C09364
:1006F00030010E941B196093310170933201809385
:100700003301909334018C2F0E945D03CF910895A3
:10071000ABE0B0E0EEE8F3E00C94C8204F835887DC
:1007200069877A878B8761110E943F0B1E821D8229
:1007300085E0FE013796DE01119601900D928A95B3
:10074000E1F78091040282FF0CC00E94020B882313
:1007500019F082E00E94EF0B0E94E90A81110E94C9
:100760006D0B8C819D81892B61F449815A816B814C
:100770007C818D819E810E94400A2B96E2E00C9440
:10078000E42089819A8189238F3F79F3CE010196F4
:100790000E949F028111E9CFF0CFFC0180819181FD
:1007A0000E9406080895CF93C82F8823B9F08CEFD4
:1007B0008C0F813AA8F46C2F809100019091010177
:1007C0000E94BC17882329F08C2F0E94D70A0E9410
:1007D0007B0B8C2F0E94CF0A0E947B0BCF91089538
:1007E00080E28C0F8830D0F7C77081E001C0880F9D
:1007F000CA95EAF70E94220BEFCF882339F19CEFCC
:10080000980F913A28F40E94D70A0E947B0B089512
:1008100090E2980F983050F4877091E001C0990FE2
:100820008A95EAF7892F0E94280BEFCF9BE5980F56
:10083000933028F490E080E00E947C170895885A55
:10084000873120F490E080E00E94921708951F9372
:10085000CF93DF93182FEB010E94D303209739F435
:10086000812F0E94FD03DF91CF911F9108958FE9A1
:100870009FE00197F1F700C000002197EFCF70E0F3
:1008800060E0893311F460E570E00E942704089568
:10089000882321F00E94220B0E947B0B089588235D
:1008A00021F00E94280B0E947B0B0895B0E0A0E08D
:1008B000ECE5F4E00C94C1206C01D62FC72FFC01AD
:1008C000F280058102950F700E94180BE82E882394
:1008D000B9F0EF2CFF20A1F08C2F807F803421F025
:1008E00080E28D0F8830D0F08091040282FF16C024
:1008F00082E00E94EF0B0E94180B91E0E82EE9269F
:10090000BC2EB2948FE0B822FBE0FB1508F468C05F
:10091000EB2DF0E0E75AFE4D0C94AB20E12CF0CF2C
:100920001C2F1F70C07F11F01295107FFF2099F0CF
:10093000112359F080E28D0F883010F0D11107C0DB
:10094000812F0E94220B0E947B0B8D2F41C0812F93
:100950000E94320BF8CF8D2F0E94FD03112309F462
:100960003FC080E28D0F883010F0D11104C0812F7C
:100970000E94280B03C0812F0E94380B0E947B0B22
:100980002FC01C2F1F70C07FC03211F01295107F36
:10099000DD2381F0D13009F47FC0FF2009F486C047
:1009A000002309F45AC0F601858180FFCECF8F70F5
:1009B000858353C08091040282FD34C0FF2059F02A
:1009C000112329F0812F0E94220B0E947B0B80E0D3
:1009D0000E94D30305C080E00E94FD031111C7CF20
:1009E0002B2D2850330B2430310520F40E9455174D
:1009F0000E945D03EE2089F00E94FE0A80FD0DC07A
:100A0000F60112820E94F80A0E942907C6010E947C
:100A100065060E94F80A0E943507CDB7DEB7E9E007
:100A20000C94DD20FF20D9F0011106C00E94420B7A
:100A3000812B0E944804D4CF013031F40E94420B34
:100A4000812B0E94560BCCCF053081F70E946D0B95
:100A50000E94E60A812B0E94490B812FEACF0111E7
:100A600003C00E946D0B10C0013091F40E941F0B57
:100A7000812309F4B5CF0E946D0B0E94E60A912FE5
:100A8000909589230E94490B812F0E944F04A8CF83
:100A9000053009F4A5CFE5CFFF2021F0063008F09E
:100AA0009FCFDBCF053008F09BCFEECF002361F363
:100AB000D93349F4FFEF27EE33E0F15020403040C6
:100AC000E1F700C000008D2F0E94FD0389CF8C2F1D
:100AD000837079F5F11084CF4D2F4295469547707C
:100AE000440F440F8D2F8F70042E01C0880F0A947D
:100AF000EAF72D2F2071D4FF07C02FE030E001C0AE
:100B0000220F4A95EAF72095C695C695C370822BA9
:100B1000C23049F058F4C13019F00E94030760CF89
:100B20000E94FD065DCF0E9409075ACF0E94FA0677
:100B300057CF8695FF2011F08C2F8170882309F400
:100B40004FCF4D2F429546954770440F440F8D2F40
:100B50008F70042E01C0880F0A94EAF72D2F2071A0
:100B6000D4FF07C02FE030E001C0220F4A95EAF71A
:100B70002095C695C695C370822BC23049F058F4B3
:100B8000C13019F00E9454072BCF0E944E0728CF86
:100B90000E945A0725CF0E94150722CFCF70FF2051
:100BA00029F08C2F0E9429078D2F43CF8D2F0E9473
:100BB0004F048C2F0E94350713CFD23F41F160F4D0
:100BC000D03FB9F0D13F81F0FF2009F456C00111A8
:100BD000BCCE8C2F8F711FC0D33F01F1D43FA1F742
:100BE0008091040282FD24C08C2F8F71FF2011F3AD
:100BF00012C0FF2041F0053008F0F2CE8C2F8F712B
:100C00000E944207EDCE063008F0EACEF7CF8C2FD7
:100C10008F71F110CFCF0E942907E2CEFF2029F07B
:100C20008C2F8F710E942007DBCE0E941C07D8CE2C
:100C3000FF20B9F00E94FE0A843041F40E94E50BC7
:100C40008C2F8F710E943507E12CCACE0530E0F75A
:100C5000CF718C2F0E94290763E08C2F0E94C70B55
:100C6000F3CF053030F00E94E50B64E08C2F8F71DC
:100C7000F5CF81E00E94EF0BE7CF002359F0D93385
:100C800009F021CF8FEF97EEE3E081509040E040F4
:100C9000E1F717CF8C2F8F718DCF0F931F93CF93C9
:100CA000DF93EC01688179818A810E9411088C01AF
:100CB0000E9460070E94F906B801CE010E94560406
:100CC000DF91CF911F910F910895CF93DF93EC01A6
:100CD0008B819C81892B29F08881998189238F3F81
:100CE00051F4DF91CF910895CE010E944D06CE01BF
:100CF0000E94A102F6CFCE010E943D038111F4CFE4
:100D00000E94180B882369F38A81882351F380910C
:100D1000040282FFE6CF82E00E94EF0BE2CF88233D
:100D200021F00E94320B0E947B0B0895882321F052
:100D30000E94380B0E947B0B08950E943F0B0E947B
:100D40007B0B08950E94DF0A0E949D0608950E9471
:100D50002F0B0E94A206089592959F70963091F0F5
:100D600058F4925F9F70923058F4803F19F030F43D
:100D7000883E30F481E008959A5FF4CF843FD1F348
:100D800080E00895883EB0F3813FD1F7F3CFFC01B6
:100D900083819481892B29F08081918189238F3FE0
:100DA00011F480E00895808191810E9406080E94DC
:100DB000AC060895A5E0B0E0E0EEF6E00C94C820A3
:100DC0002596E2E00C94E420A6E0B0E0EAEEF6E03E
:100DD0000C94C8202696E2E00C94E42008950E942A
:100DE000EE0608950E94EF0680933D010E949D0645
:100DF000089508950E94F206089590913D01892B6F
:100E00000E94F206089590913D0189230E94F20606
:100E1000089590913D0189270E94F20608950E944D
:100E2000EE0608950E940F0708950E94120780930E
:100E30003C010E949D06089580E00E9415070895D8
:100E400091E001C0990F8A95EAF7892F0E94150752
:100E5000089521E030E001C0220F8A95EAF78091E1
:100E60003C01822B0E941507089521E030E001C06B
:100E7000220F8A95EAF7209580913C0182230E94F7
:100E80001507089521E030E001C0220F8A95EAF7A6
:100E900080913C0182270E941507089590913C01A2
:100EA000892B0E941507089590913C0189230E9487
:100EB0001507089590913C0189270E941507089510
:100EC0000895262F277091E001C0990F2A95EAF71F
:100ED00023E0769567952A95E1F7FB01EE0FFF1F5A
:100EE000E60FF71FE40FF51F50E040E0682F70E0B9
:100EF0008191DF0111979B01042E02C03695279541
:100F00000A94E2F7217021952827292328272C937A
:100F10004F5F5F4F4330510559F70895A82FA770D1
:100F200023E0969587952A95E1F7FC01EE0FFF1FC8
:100F3000E80FF91FE60FF71F50E040E080E0219135
:100F400030E00A2E02C0369527950A94E2F7217008
:100F50003327042E01C0220F0A94EAF7822B4F5F39
:100F60005F4F4330510559F70895262F943070F4A0
:100F7000833060F4682F70E083E0989F600D711DEE
:100F8000112446E351E0822F0E9461070895292F22
:100F9000943068F4833058F490E066E371E033E015
:100FA000239F800D911D11240E948E07089580E0DB
:100FB0000895CF92DF92FF920F931F93CF93DF9309
:100FC0006C0100913C0180913D01082BC7E0D0E00D
:100FD00010E0FC2EC8010C2E02C0959587950A944E
:100FE000E2F780FD0CC02197A0F7F12C8F2DDF9147
:100FF000CF911F910F91FF90DF90CF900895B60190
:101000008C2F0E94770E019771F3F0CFCF93DF936F
:10101000EC010E94D907BE010E94770EDF91CF91AB
:1010200008951F93CF93DF93EB019091350199239E
:1010300039F0CB010E940608DF91CF911F910895EE
:10104000882369F0CB010E94D907182F682FCE01A1
:101050000E94B507BE01812F0E94770EEDCFCB0114
:101060000E94C707182FF6CF1F93CF93DF93C0912D
:101070003E0116E080913F018C1304C0DF91CF91B7
:101080001F910895D0E01C9FF0011D9FF00D1124C9
:10109000E05CFE4F40815181628173818481958142
:1010A0000E94E4062196C770E5CF409170015091EF
:1010B000710160917201709173018091740190913E
:1010C00075010E94E40608951F93CF93DF938091EA
:1010D0007501807F09F049C080917201882309F46D
:1010E00044C080913E01C0913F01609170017091B8
:1010F0007101A0917301B0917401D62FD72316E02E
:10110000C81799F190E0109711F0DF3F19F401969C
:101110008770F6CF189F9001199F300D1124F901A7
:10112000E05CFE4F41814713F2CF40814613EFCF81
:1011300042814111ECCF438154814A1B5B0B483CF7
:10114000510528F7809175018F708061809375013A
:10115000F901EB5BFE4F80818F708061808380E7B7
:1011600091E00E9465060E943408DF91CF911F91A3
:101170000895A1E1B0E0EFEBF8E00C94C0208C0101
:1011800085E0F801DE011D9601900D928A95E1F748
:10119000F801E28080E7C82E81E0D82E60917301CB
:1011A000709174016115710509F44EC1909170013F
:1011B00020917101892F82238F3F09F445C140811D
:1011C0005181A380B480F0907201F501E61BF70B0A
:1011D000FF2009F4EAC080917501382F307FE83C88
:1011E000F10508F0A3C031116DC0FE2C251316C007
:1011F000941314C0E11012C08F7080618093750148
:101200000E945508C6010E94650680917501F8018B
:1012100085838F2D6196EAE00C94DC20A114B10443
:1012200029F0842F85238F3F09F027C180E0F82F14
:10123000F170DF2E80FF3CC080913E0120913F0184
:1012400036E0821315C04D875E878D859E850E948E
:101250000608292F22952F702230F0F0243018F53F
:101260009F70F1F0F8019581907FD1F4D12C1EC0D0
:1012700090E0389FF001399FF00D1124E05CFE4FA3
:101280006181651306C06081641303C06281E61248
:101290000FC001968770D5CF9F7011F0882331F36E
:1012A000805E883018F3C8010E946506FD2CB1CF1E
:1012B000EE2009F4AECF80917501816080937501B5
:1012C000F12CA7CF251306C0941304C0F801EE201B
:1012D00009F487C0C8010E94C706882319F1EE20CF
:1012E00009F180917501803270F020917001309188
:1012F000710138872F831986BB86AA868C87CE0119
:1013000007960E94650686E0F801A0E7B1E001902B
:101310000D928A95E1F70E9464080E945508FF2407
:10132000F39477CFC8010E946506F9CF311113C03D
:101330007A2DB98AA88A6E2D89890E94DA0680E7FB
:1013400091E00E94650686E0F60111928A95E9F720
:101350000E945508B5CF25130FC094130DC0E1109E
:101360000BC0F8018583C8010E94650686E0F6017E
:1013700011928A95E9F74DCFC8010E94C7068823CC
:1013800089F2EE2079F280917501803208F4BBCFAA
:1013900020917001309171013A8329831B82BD82B3
:1013A000AC828E83CE010196ACCFE83CF10508F00B
:1013B0003EC0FE2CEE2009F4B5CF25132AC09413AD
:1013C00028C08091750180FD1BC0982F907FC1F0CF
:1013D000F8018583903F31F0982F907F905F8F7058
:1013E000892B8583C8010E94650686E0F801A0E785
:1013F000B1E001900D928A95E1F70E94550809CF5E
:1014000086E0F801A0E7B1E001900D928A95E1F73E
:1014100000CFC8010E94C706811175CF8091750168
:10142000816080937501C8010E946506F2CE7A2D15
:10143000B98AA88A6E2D89890E94DA0686E0F601AB
:1014400011928A95E9F7D9CFEE2009F46BCFC80144
:101450000E94C706F82E882309F464CF86E0F801BD
:10146000A0E7B1E001900D928A95E1F780E791E065
:101470000E94CD030E946408C0CF81E08E25D7CEA4
:10148000ACE0B0E0E6E4FAE00C94C7204F83588764
:1014900069877A878B879C87CE0107960E94B90857
:1014A000882369F08A859B85892B39F04F8158857F
:1014B000842F85238F3F09F06BC016E05FC086E064
:1014C000FE013796DE01119601900D928A95E1F7A3
:1014D0008A859B85892B89F38F81988589238F3F06
:1014E00061F320913F0130E0C9010196877099278F
:1014F00040913E014817190671F40E94A706109208
:101500003F0110923E0186E0E0E7F1E0DF011D922D
:101510008A95E9F7D2CF96E0929FD001939FB00DC4
:101520001124A05CBE4FFE01319601900D929A9558
:10153000E1F780933F010E943408BFCF819FC00133
:101540001124805C9E4F0E94B9088823E9F0E09145
:101550003E011E9FF0011124E05CFE4F408151814D
:1015600062817381848195810E94E40680913E01AD
:1015700090E001968770992780933E0180913E010B
:1015800090913F018913DACF2C96E3E00C94E3208D
:1015900069857A858B859C850E94E4068ECF682FAD
:1015A00080910001909101010E943C180895682FDC
:1015B00080910001909101010E944A180895809144
:1015C0000001909101010E945818089580919B019B
:1015D00008950E940F192091990130919A01821B60
:1015E000930B9C0181E02838334108F480E0089592
:1015F00080919801859585958595089580919801AC
:10160000877008950E940F192091960130919701DB
:10161000821B930B8838934148F08091980182FB9C
:10162000882780F991E089278170089580E0FCCFB8
:1016300090919801977081E009F480E0089580917D
:10164000BE0108959091BE01892B8093BE0108953B
:1016500080959091BE0198239093BE0108951092B9
:10166000BE0108959091BD01892B8093BD0108951D
:1016700080959091BD0198239093BD01089510929B
:10168000BD01089580919C01089508950E94450B25
:10169000089590919B01981721F080939B010E94DF
:1016A000460B089508950E94520B0895CF93C82FBA
:1016B0008091040282FF0FC080919C018C1759F029
:1016C0000E940F1990939A0180939901C0939C01F5
:1016D0008C2F0E94530BCF91089580919C018823F9
:1016E00049F010929C0110929A011092990180E0A9
:1016F0000E94530B0895CF93DF93E0910001F09186
:1017000001018091BE018083E0910001F09101010F
:1017100080819091BD01892B808380919C018823D9
:10172000B9F00E94E90A81110E946D0BE09100015D
:10173000F0910101808190919C01892B808380919F
:101740000001909101010E94A81781110E946D0B68
:10175000C0910001D091010140E250E066E771E0E4
:10176000CE010E94F820892B59F080E2FE01A6E705
:10177000B1E001900D928A95E1F7CE010E946217C7
:10178000DF91CF91089508950E94C30B0895909121
:10179000040292FF17C098E0899F90011124622BE8
:1017A000609398010E9429070E940F199093970156
:1017B00080939601809198018595859585950E94E5
:1017C000C40B08950E942907089510929801109261
:1017D00097011092960180E00E94C40B08959091A9
:1017E00098018095892380939801282F277091F480
:1017F000282F082E000C330B9217130659F09091E6
:10180000040292FF07C08595859585950E9435074E
:101810000E94E50B08959091040292FB222720F983
:10182000281769F080FB92F99093040280910302DB
:10183000909104020E945D0C82E00E94EF0B0895DB
:101840008091040282FB882780F991E089270E9419
:101850000B0C089581E00E940B0C089580E00E941B
:101860000B0C08956FEF7FEF90E080E00E94412124
:10187000089590E080E00E941D21883E9E4F19F45B
:101880000E94FF10089580E0089582E090E00E9499
:101890001521089583E090E00E9415210895CF93CB
:1018A00084E090E00E941521C82F82E290E00E941F
:1018B0001521982F8C2FCF910895CF93C92F682F82
:1018C00084E090E00E9423216C2F82E290E00E944D
:1018D0002321CF910895AB01BC018FE090E00E94DD
:1018E00035210895AB01BC0183E190E00E943521D0
:1018F000089560E070E0CB010E94720C089560E0F2
:1019000070E0CB010E946B0C0E94790C089568EE88
:101910007EEF90E080E00E94412160E082E090E074
:101920000E94232160E083E090E00E942321109236
:101930003D0160E084E090E00E94232164E082E2C7
:1019400090E00E94232160E085E090E00E94232146
:1019500060E086E090E00E9423216FEF87E090E056
:101960000E94232140E050E0BA0188E090E00E940C
:10197000352160E08DE090E00E94232140E050E0BE
:10198000BA0188E190E00E94352160E087E190E0B3
:101990000E94232140E050E0BA018CE190E00E94D7
:1019A000352170E060E080E290E00E94412140E05B
:1019B00050E0BA0188E190E00E94352180E00E9469
:1019C00018110E9447110E947F0C08950E94870CF5
:1019D00008950E941B196093C9017093CA018093F6
:1019E000CB019093CC016093C5017093C6018093A5
:1019F000C7019093C8010895089508950E94FD0CB1
:101A0000089508950E94010D089581E69FE00E94C7
:101A10004B170E94C1120E94FC0C0E94FE0C0895FC
:101A200081E008950E94100D0895089508950E9480
:101A3000150D0E94160D08950E94800F0E945C03F0
:101A400008950E9406190E9457110E9453100E9487
:101A50001C0D0E94020D0895AAE0B0E0E2E3FDE053
:101A60000C94C0200E94691081ECA82E81E0B82E51
:101A7000750110E0F70101917F01812F0E94B70FDE
:101A80001F5F143009F440C00817A1F38091CD0105
:101A900081FD0E94BD0F0E94120DC82E10E0812F03
:101AA0000E94B70F082FF50181915F01081731F1EE
:101AB000D02ED826F12CEE24E3948D2D8E21B1F07A
:101AC000CC20A1F0FE821F8391E0802F8E2109F4AB
:101AD00090E098870E940F198160782F9A878987F4
:101AE0004E815F8168858A850E948803F394EE0C9D
:101AF000F3E0FF12E2CFF501319700831F5F14304E
:101B000071F60E94E90C20C00813C0CF0E940F1983
:101B10008C018091BF019091C00108171907A1F0B5
:101B20008FEF89838A831B820E940F198160782F2F
:101B30009D838C8349815A816B818D810E948803AA
:101B40001093C0010093BF010E946F032A96EAE040
:101B50000C94DC20CF93DF930E947C0EEC01811566
:101B600023E5920790F5811532E5930708F08EC0C2
:101B7000811540E29407C8F4C11581E0D80788F4C4
:101B8000C53AD10548F4C430D10558F4C130D10567
:101B900041F0D0E0C0E005C0CE01805E9109089719
:101BA000C0F7CE01DF91CF910895811521E592070D
:101BB00008F067C0811530E5930708F04EC0811525
:101BC000904438F3DF70D06AECCFC11586E5D807B2
:101BD000F0F4C11525E5D20708F070C0C11534E551
:101BE000D30708F066C0CE018370992721E030E06A
:101BF00002C0220F331F8A95E2F7C695C69540E2D0
:101C0000C49FE0011124C22BD32BDA68CACFC115BF
:101C10004AE5D40778F4C11589E5D80708F059C01A
:101C2000C11528E5D20708F4B4CFDC2FCC27C06F4C
:101C3000D06AB7CFCE0190568115904208F0A9CF57
:101C40008D2F8F710E941E0F90E0982F8827882774
:101C50009F719C012C2BE9013AC0282F26952695CF
:101C6000237040E2249F900111248370C1E0D0E0F2
:101C700002C0CC0FDD1F8A95E2F7C22BD32BDD68A3
:101C800090CFD82FCC27C16FD06A8BCF8370992784
:101C900021E030E002C0220F331F8A95E2F7C6959B
:101CA000C69580E2C89FE0011124C22BD32BDC68CB
:101CB00078CFDC2FCC27C46FD06A73CF8C2F0E94D3
:101CC0001E0FC82FD0E0DC2FCC27CC27DF71D062CD
:101CD00068CF8C2F8F700E941E0F34E0D695C79569
:101CE0003A95E1F7CF709C2FEC01D0695ACF0E9452
:101CF00054150E94AA0D089582389105B9F1B0F4E7
:101D00008133910509F47DC048F48932910509F4C5
:101D10006DC08A32910509F47BC008958533910521
:101D200009F45FC08933910509F10895833E910557
:101D3000D9F138F4803E910529F1823E910579F17F
:101D40000895863E9105D9F1873E910509F43EC07C
:101D5000843E910541F52091040221FF24C0809129
:101D6000030284FD19C087EE90E0089520910302DC
:101D7000237009F05AC02091040223FF14C089E2A5
:101D800090E008952091030220FD38C030910402B4
:101D900030FF09C024FF43C090E080E00895209107
:101DA000030222FDF7CF08952091030222FD3AC0DD
:101DB0003091040230FD39C024FFF5CFEDCF2091E2
:101DC000030223FFF0CF24FDE7CFCDCF2091030204
:101DD00023FD2EC03091040231FFEECF84EE90E05F
:101DE00008952091030225FFDECFC9CF2091030281
:101DF00025FD21C02091040223FFD5CF89E390E087
:101E0000D2CF2091030226FFCECF8AE290E0089540
:101E10002091030226FFC7CF81E390E0089583EE6F
:101E200090E0089582EE90E0089580EE90E00895AD
:101E300086EE90E0089585E390E008959091030286
:101E400092FF06C0282F28712830F9F4877F84601C
:101E500093FF06C0282F28712831F1F4877E846112
:101E60002091040220FF06C0382F38713830D9F491
:101E7000877F816021FF06C0282F28712831D1F487
:101E8000877E816194FD877E0895282F24712430F8
:101E9000F9F68B7F8860DCCF282F2471243101F77D
:101EA0008B7E8861DDCF382F3171313019F78E7F0D
:101EB0008860E0CF282F2171213121F78E7E886143
:101EC000E1CF80E008950E94320C08950E946910CD
:101ED0002FEF86E791E0215080409040E1F700C06D
:101EE00000000E94691080E00E94B70F80FF04C0CC
:101EF0000E94630F0E945A1908950E94660F089568
:101F00000E94390C811102C00E94E60C0E94450C0F
:101F10008093CD010E944F0C9093040280930302A2
:101F20000E947D0F0E944A0C0E94FA0680913C019B
:101F30000E941207089508950E949B0F0895089526
:101F40000E949F0F0895E82FF0E0E75FFD4F20818A
:101F500030E081E090E002C0880F991F6A95E2F7B7
:101F60002823392381E0232B09F480E00895E82F0A
:101F7000F0E0E75FFD4F80810895089580EA8A953B
:101F8000F1F7089500C008950E94BE0F0895F894D7
:101F9000E82FE295EF70F0E031A1282F2F7081E05B
:101FA00090E001C0880F2A95EAF7982F9095932327
:101FB00091A392A1892B82A37894089587E90E9426
:101FC000C70F86EC0E94C70F84E30E94C70F85E30A
:101FD0000E94C70F83E30E94C70F82E30E94C70FCE
:101FE00086E30E94C70F0895B0E0A0E0EAEFFFE0AB
:101FF0000C94C220EC01D62E062F10E0C801865E9C
:102000009E4F7C01FC0180818F3F09F445C0F8940C
:10201000E82FE295EF70F0E091A18F7021E030E0C1
:1020200001C0220F8A95EAF7892F822B81A382A112
:102030002095282322A378940E94C20FE7E1F1E0C3
:102040004AE151E031E0C12C21912F3F51F1A22F03
:10205000A295AF70B0E090968C9190E02F7002C086
:10206000959587952A95E2F780FD1BC0832FC82A96
:10207000330F4E175F0741F7F70180818F3F11F053
:102080000E94C70F61E0C11001C060E08D2D0E9469
:10209000C40FC00FD11FC882CDB7DEB7E8E00C94E3
:1020A000DE2080E0E4CF0E94DE0F84E0E9E0F2E091
:1020B000DF01982F1D929A95E9F7E5E0F2E0DF0144
:1020C0001D928A95E9F784E00E94A6100E94D4022E
:1020D0000895A4E0B0E0EFE6F0E10C94C720198287
:1020E0001A821B821C8210E0612FCE0101960E9491
:1020F000F40F1F5F1430C1F744E050E0BE016F5F82
:102100007F4F85E092E00E94F82021E0009709F4DB
:1021100020E0892B61F089819A81AB81BC81809319
:10212000050290930602A0930702B093080244E0D0
:1021300069E072E085E092E00E94A710182F0E94EB
:10214000D702812F2496E3E00C94E3200895CF92E8
:10215000DF92EF92FF920F931F93CF936C017B015D
:10216000042F222349F081E08093D0010E940F19AF
:102170009093CF018093CE01C091D001C1110AC0CC
:10218000C0E08C2FCF911F910F91FF90EF90DF90C7
:10219000CF9008958091CE019091CF010E94271990
:1021A000059770F310E0A801B601C7010E94F8205E
:1021B000892B41F0A801B601C7010E9405211092A8
:1021C000D001DFCFC0E0FBCF0E94041B0E94210D95
:1021D0000E94111B08950E94161B0E942C0D0E9444
:1021E000301B08950E94A8180E94EA1A0E94050D4B
:1021F0000E94E4100E94EB100E94170DFBCF83E2B7
:1022000090E00E941521823589F484E290E00E94DA
:1022100015218E3559F485E290E00E94152191E058
:102220008E3F09F090E0892F8170089580E0FCCF07
:10223000CF93C82F6FEF811162E583E290E00E9497
:1022400023216FEFC1116EE584E290E00E9423210B
:102250006FEFC1116EEF85E290E00E942321CF91D4
:102260000895089586E290E00E941521682F70E09D
:1022700090E080E008950895CF93C62F0E943B110F
:102280006C2F86E290E00E942321CF91089580E098
:102290000E94181160E070E0CB010E943C110E9486
:1022A0006F140E94C01581E00E94181108950E94C9
:1022B00031110E9432110E943B110E94FF108111C6
:1022C00002C00E9447110895CF93FB01C281CC2325
:1022D00009F19C0122513F452031310520F5825101
:1022E0000E94D015C0E08C2FCF91089581E00E940C
:1022F000290743E062E081E00E94CA02F3CF81E057
:102300000E94350743E062E081E00E94CA02EBCF01
:1023100082E0F6CF8031FFE59F0789F381319F4549
:10232000B9F3C1E0E0CF8031EFE59E07F9F28131EA
:102330009F45C9F682E0DBCF2FEFFC012083089593
:10234000EF92FF920F931F93CF93DF93EC01162F21
:1023500088812091D5013091D601232B79F08E3FD1
:1023600009F05CC08981833020F08550833008F00B
:1023700055C0612FCE010E94C21250C08B3009F4AB
:10238000EAC0D0F4843009F488C060F4823009F4E3
:102390004EC008F075C08130F1F1612FCE010E946E
:1023A0009C113CC0863009F48EC008F481C08A308C
:1023B000A0F78FEF888332C0803109F4A4C000F504
:1023C0008D3009F487C008F481C08E3009F48AC0CA
:1023D0008F3019F78091D7019091D801892BF1F0B6
:1023E0006B8170E06D317105C8F489819A81AE010D
:1023F0004C5F5F4F9827892798270E949B150EC036
:10240000823109F486C008F481C0833109F492C096
:102410008E3F19F6AECF198289E08A83612FCE01F3
:102420000E94BD19CDB7DEB7E6E00C94E0208981AB
:10243000823071F0833079F0813009F0AECF0E94A4
:102440001B190E94B1206A837B838C839D83E6CF16
:102450000E943211F6CF8091D7019091D801892B3B
:10246000E9F27E0122E0E20EF11C00E0802F0E94E2
:10247000B70FF70181937F010F5F0430B9F7CECF1B
:102480008981823009F089CF6A817B818C819D812D
:102490000E94B1200E943C11C1CF4B816A81898189
:1024A0000E9431149827892798279D838C83B6CF63
:1024B0002C813D813227232732274B816A818981F4
:1024C0000E945314ABCF0E946F14A8CF0E947115C5
:1024D0008983A4CF0E9473159827892798279A8308
:1024E00089839CCF6B8170E06D31710508F096CFC8
:1024F00089819A81AE014C5F5F4F98278927982781
:102500000E9476158BCF0E94C01588CF0E941F14A1
:10251000DFCF6B8170E06D31710508F07FCF89816D
:102520009A81AE014C5F5F4F9827892798270E94B8
:10253000B71474CF6B8170E06D31710508F06ECF08
:1025400089819A81AE014C5F5F4F98278927982730
:102550000E94DA1463CF8091D7019091D801892B22
:1025600009F45CCFCE010E94BD19FFEF21EE84E09B
:10257000F15020408040E1F700C000000E945A194D
:102580004DCF0895A8E0B0E0E8ECF2E10C94C4204F
:102590008C01603269F5DC011196EC911197EE30F7
:1025A00038F5F0E0EB59FE4D0C94AB2088E0EFE0FD
:1025B000F1E0DE01119601900D928A95E1F780E23B
:1025C000F80111928A95E9F785E0D8018C9311966C
:1025D0001C92119712961C92129713961C921397A5
:1025E00088E0FE013196149601900D928A95E1F7EC
:1025F0002896E6E00C94E02080EDF80180831182BB
:1026000012821382F5CF13968C911397682F70E086
:10261000762F662712968C91860F972F911D092E83
:10262000000CAA0BBB0B25E0880F991FAA1FBB1F2C
:102630002A95D1F7AC01BD01405E5F4F6F4F7F4FD0
:10264000481759076A077B0798F2803D9105A10555
:10265000B10570F6413D51056105710520F040ED71
:1026600050E060E070E0481B590BBC0164527F4FA2
:10267000C8010E94EF20BCCF40E250E06FEF70E055
:102680000E940E218091D701F80180838091D501AD
:102690008183128281E0838314821582A9CF81E035
:1026A00090E09093D6018093D50182E390E09093DF
:1026B000D4018093D3010E940F199093D20180938B
:1026C000D10196CF8091D5019091D601892B91F1BE
:1026D00061E080E00E94A30FE82E60E080E00E94AD
:1026E000A30FF82E8091D1019091D2010E94271959
:1026F0008536910568F1EE2059F1FF2049F10E94DD
:102700000F199093D2018093D1018091D3019091C0
:10271000D40101979093D4018093D301892B51F474
:102720001092D6011092D50181E090E09093D801EB
:102730008093D7018091D701D8018C938091D501E6
:1027400011968C9311978091D30112968C9350CF50
:1027500082E390E09093D4018093D301EBCF109269
:10276000D8011092D70144CF40E250E06FEF70E003
:102770000E940E213DCFFC018281811139CF80E280
:102780001D928A95E9F710821182128231CFA5E05D
:10279000B0E0EDECF3E10C94C82090930E0280932E
:1027A0000D02811520E2920730F40E943202259634
:1027B000E2E00C94E42080EF89838A8381E08B83BC
:1027C0000E940F198160782F9D838C8349815A81E3
:1027D0006B818D810E948803EACFA5E0B0E0E3EF32
:1027E000F3E10C94C82090930E0280930D028115A2
:1027F00020E2920730F40E9448022596E2E00C9411
:10280000E42080EF89838A831B820E940F198160F4
:10281000782F9D838C8349815A816B818D810E94A1
:102820008803EBCFCF93DF93EC010E94C713CE0157
:102830000E94ED13DF91CF91089581E0089584E027
:10284000089550E0440F551F96E0699F400D511DBB
:10285000112498E1899F400D511D1124CA018796CA
:1028600008950F931F93CF93DF938430C8F464309F
:10287000B8F44330A8F40E9421148C010E94152161
:10288000C82FD0E0DC2FCC27C80101960E9415216B
:102890009E01282BC901DF91CF911F910F910895BF
:1028A00090E080E0F8CF0F931F93CF93DF93122F28
:1028B000032F843078F4643068F4433058F40E9475
:1028C0002114EC01602F0E942321612FCE0101967B
:1028D0000E942321DF91CF911F910F910895B0E0C5
:1028E000A0E0E5E7F4E10C94BE208090D701909041
:1028F000D80181E090E09093D8018093D7018CEAD1
:10290000C82E80E0D82ED0E0C0E0760110E01CC0D8
:102910000E94F50121E030E08C171D0621F01CF02B
:10292000F50125913491402F612F8C2F0E94531473
:1029300082E0A80EB11C0F5F033051F71F5F86E0E5
:10294000E80EF11C143019F0570100E0E1CF219698
:1029500088E1C80ED11CC430D105B9F69092D801D7
:102960008092D701CDB7DEB7ECE00C94DA20EF927D
:10297000FF920F931F93CF93DF93EC018A017C01A9
:10298000E60EF71ECE018796CE15DF0529F4CDB7EA
:10299000DEB7E6E00C94E020C036D10540F40E949A
:1029A0001521F80180830F5F1F4F2196EBCFF801AF
:1029B0001082F9CFB0E0A0E0E0EEF4E10C94BA2090
:1029C000EC017B018A0180369105D8F480E690E025
:1029D0008C1B9D0B86179707A0F03E0127E2620E25
:1029E000711C8091D7019091D8012E01460E571E7F
:1029F000892B61F07E01C7018796E414F50409F084
:102A000043C0CDB7DEB7E0E10C94D6206E0131E0D3
:102A1000C322DD24C0FF0FC0CE0186960E9415217F
:102A2000F801908189279827892781159C4519F4F9
:102A30008FEFF8018083570140FE13C0F1E0AF1A19
:102A4000B10848018A0C9B1CC3018E0D9F1D0E947A
:102A50001521F401908181159C4519F48FEFF40143
:102A60008083F801EC0DFD1D2FEFCA14DB0410F676
:102A70009081818181159C4511F42083218382E01E
:102A8000C80ED11C3296F1CFE0E6EE16F10440F408
:102A9000F701EC1BFD0BE00FF11F60810E94232169
:102AA000FFEFEF1AFF0AA7CF462F2091D5013091F3
:102AB000D601232B99F4703F39F4603F79F480916B
:102AC0000D0290910E020895843040F4743030F479
:102AD000633020F4672F0E943114089590E080E065
:102AE000089580E1089589E793E00895EF92FF92B9
:102AF0000F931F93CF93DF93EC018A017C01E60EC5
:102B0000F71ECE0189579F4FCE15DF0529F4CDB7AB
:102B1000DEB7E6E00C94E020C93723E0D20740F4AA
:102B20000E941521F80180830F5F1F4F2196E9CF86
:102B3000F8011082F9CFB0E0A0E0E1EAF5E10C94F1
:102B4000C2207C016A018C01060F171FEC01CE0127
:102B500089579F4FC017D10729F4CDB7DEB7E8E0FA
:102B60000C94DE20C93723E0D20740F4FE01EE19B1
:102B7000FF09EC0DFD1D60810E9423212196E7CF06
:102B8000CF93DF93C7E8D0E060E0CE010E9423211D
:102B90002196C11584E0D807B9F7DF91CF91089548
:102BA000A4E0B0E0E6EDF5E10C94C120F82E2FE0B2
:102BB000281708F4A5C08FEF93E00E94152181111A
:102BC0009FC007E810E0F11036C019821A821B82FC
:102BD0001C82BB24BA9478015FEFE51AF50AC8019C
:102BE0000E94152189831A82882309F489C08130C3
:102BF00009F07FC0680182E0C80ED11CC7010E94A5
:102C00001521E82E8A83882309F47AC0C6010E9420
:102C10001521F82E8FEF8E0D8330D8F46801E3E094
:102C2000CE0ED11CFB82FF2021F0CE0101960E9426
:102C300047178601D0CF011544E0140709F460C09E
:102C4000C8010E941521811101C0FA940F5F1F4F26
:102C5000BACF8BEF8E0D833030F5C8010396FB821F
:102C60006C01FF2031F36801F4E0CF0ED11C0E940B
:102C700015218C838823E9F28B819C8181302FEF91
:102C8000920710F0982F882746E0E41631F057E0BD
:102C9000E51631F00E941214CCCF0E94C713C9CFA1
:102CA0000E94ED13C6CF84E0E812C3CF6801E4E0D0
:102CB000CE0ED11CC80103960E941521FF2001F100
:102CC0008823F1F08150990BB89E9001B99E300D88
:102CD00011244F2D4150550BCA01820F931F0197AC
:102CE00008F4A7CFEFE9FFE03197F1F700C000004B
:102CF000F6CF60E0CE0101960E94E116670199CF00
:102D00002496E9E00C94DD20B0E0A0E0EAE8F6E1EA
:102D10000C94C320E82FF0E0E455FE4FD490282F08
:102D200026952695269530E0F901E45BFD4F049148
:102D3000877010E0082E02C0159507950A94E2F7F7
:102D400001701127F901E45CFD4FE490F12C082E8D
:102D500002C0F594E7940A94E2F791E0E922FF2497
:102D6000F901E45DFD4FC491D0E002C0D595C7954F
:102D70008A95E2F7C170DD270115110519F081EE82
:102D80000E94D303E114F10419F086EE0E94D303EC
:102D90008D2D0E943F04E114F10419F086EE0E948B
:102DA000FD030115110519F081EE0E94FD03CD2BE5
:102DB00019F08CE20E943F04CDB7DEB7E7E00C9437
:102DC000DF20EF92FF920F931F93CF93DF93EC01DD
:102DD000162F0AE08881882309F454C0813009F055
:102DE0004EC08981813099F47E0122E0E20EF11C0F
:102DF0008A810E943F04E7012196812F815050F380
:102E0000EFE9FFE03197F1F700C00000F7CF823023
:102E100041F47E0182E0E80EF11C8A810E94D30316
:102E2000EACF833041F47E01E2E0EE0EF11C8A81AC
:102E30000E94FD03E0CF843011F02196DDCF2A817E
:102E4000229690E080E0AE014F5F5F4F2053330B3E
:102E50002A30310548F0019778F2EFE9FFE0319729
:102E6000F1F700C00000F7CF089FB001099F700D77
:102E70001124C901860F971F2981EA01E4CF0E941E
:102E80008416BACFCDB7DEB7E6E00C94E02060E060
:102E90000E94E116089590932F0180932E010895CA
:102EA0009093DE018093DD010895E091DD01F091C2
:102EB000DE01309729F00190F081E02D0995089509
:102EC00080E00895E091DD01F091DE01309799F006
:102ED00020910E01222359F02091030227FF07C001
:102EE000DC012C9111962C93119726E02C930280F3
:102EF000F381E02D099508952091DB013091DC01EB
:102F00002817390771F09093DC018093DB01E09181
:102F1000DD01F091DE01309721F00680F781E02D90
:102F2000099508952091D9013091DA0128173907C0
:102F300071F09093DA018093D901E091DD01F09175
:102F4000DE01309721F00084F185E02D0995089588
:102F5000FC01329680910E01882321F080910302BA
:102F60009EE187FF96E080E0915008F4089521915A
:102F70002223D1F38F5FF8CF662301F120910E0158
:102F80002223F1F02091030227FF1AC0462F469515
:102F9000469546954E3190F4677021E030E002C0CE
:102FA000220F331F6A95E2F7840F911DFC01828185
:102FB00090E02823392381E0232B69F480E00895F1
:102FC000FC01329608962191261721F0E817F9079F
:102FD000D1F7F4CF81E008959C01FC0132969FEF78
:102FE00080E04191461751F09F3F19F4411101C013
:102FF000982F8F5F8630A9F79F3F09F40895290F16
:10300000311D97FD3A95F90162830895FC013296CE
:1030100008962191261303C0DF0111971C92E8172F
:10302000F907B9F70895E62FE695E695E695EE31AE
:1030300068F4E80FF92FF11D677021E030E001C05E
:10304000220F6A95EAF78281822B82830895E62F08
:10305000E695E695E695EE3170F4E80FF92FF11D4F
:10306000677021E030E001C0220F6A95EAF72095F1
:10307000828128232283089520910E01222339F092
:103080002091030227FF03C00E94131808950E9495
:10309000EC17089520910E01222339F020910302AC
:1030A00027FF03C00E94271808950E94061808955C
:1030B000FC01329680910E01882351F08091030229
:1030C00087FF06C08EE1DF011D928A95E9F708951A
:1030D00086E0F9CF08950E946A180895811106C00C
:1030E00081E08093DF010E946B18089582E0F9CFA0
:1030F00083E08093DF010E946B1808950E946E1890
:10310000089581E08093DF010E946B1808950E946A
:1031100081180895089508950E948B1808950895C0
:1031200008950E948A180895CF930E948F180E94D4
:1031300069100E949018C0E08C2F0E94B70F811177
:1031400005C0CF5FC430C1F7CF91089581E0FCCFB7
:1031500085B7806885BF85B7806885BF08951F9251
:103160001FB61F9211248F939F93AF93BF938091AB
:10317000E001811113C080910F0290911002A09183
:103180001102B09112024196A11DB11D80930F0250
:1031900090931002A0931102B0931202BF91AF91CD
:1031A0009F918F911F901FBE1F90189580911702BD
:1031B000843031F10E9449031092E00188E190E0EF
:1031C00020E40FB6F894A895809360000FBE20937A
:1031D000600083B7817F846083BF83B7816083BFD2
:1031E0007894889583B78E7F83BF0FB6F894A8959F
:1031F00080916000886180936000109260000FBE33
:1032000008950E94A7060E944E03089582E084BD9F
:1032100093E095BD9AEF97BD80936E0008952FB708
:10322000F89480910F0290911002A0911102B09138
:1032300012022FBF08952FB7F89460910F0270917A
:10324000100280911102909112022FBF08959C01EB
:103250004FB7F89480910F0290911002A091110243
:10326000B09112024FBF821B930B089578941F9266
:103270001FB61F9211248F939F93AF93BF9380919A
:103280000F0290911002A0911102B09112020196CA
:10329000A11DB11D80930F0290931002A093110203
:1032A000B0931202BF91AF919F918F911F901FBE5B
:1032B0001F90189587E797E790930108809300087F
:1032C00088E19AE00FB6F894A895809360000FBE4D
:1032D00090936000FFCF88E19AE00FB6F894A8952C
:1032E000809360000FBE90936000FFCF8091010239
:1032F000089508950895CF93DF93EC0180910E0116
:103300008823B1F18091030287FF32C060E284E03C
:103310008093E9008FEF9091E800815095FD06C001
:1033200095ED9A95F1F700008111F5CF8091E800B5
:1033300085FF1BC080910E0170E050E040E08111DC
:1033400004C050E040E068E070E0CE010E94D51B70
:103350008091E8008E778093E80080E2FE01A1EE84
:10336000B1E001900D928A95E1F7DF91CF91089538
:1033700068E081E0CDCF08950895CF93FC016032DD
:1033800021F580911702843001F5C091E900CF70DA
:103390002091EC00922F917020FD90E8C92B82E0E3
:1033A0008093E9008091E80080FF0CC050E040E08D
:1033B00060E270E0CF010E94D51B8091E8008E771B
:1033C0008093E800CF70C093E900CF910895809179
:1033D0001602811109C00E94B41D0E94111E809125
:1033E000E20084608093E20008951092160208952E
:1033F0000E94811808956091130281E0611101C05B
:1034000080E00E94781808959091170281E094302E
:1034100009F080E0609113020E947E18089542E056
:1034200061EC81E00E94301D42E261EC84E00E9488
:10343000301D42E261EC82E00E94301D42E260EC0D
:1034400083E00E94301D9091170281E0943009F0D2
:1034500080E0609113020E946E1808958091190215
:10346000833009F463C030F48130E1F1823009F433
:10347000A0C008958A3009F48CC08B3009F471C063
:10348000893009F052C080911802813209F04DC094
:1034900080911C0290911D02009719F0029709F08B
:1034A00044C08091E800877F8093E8008091E80025
:1034B00082FF37C09091F3008091F200029731F4BF
:1034C0008091F100813011F0863021F48091F1007B
:1034D000809301028091E8008B778093E8000E943E
:1034E000641D23C080911802813AF9F48091E800AC
:1034F000877F8093E80080911C0290911D02892BA8
:1035000061F460E281EE91E070E00E94731C8091B2
:10351000E8008B778093E800089560E090E080E019
:10352000F3CF809117028111C1CF089580911802C5
:10353000813AD9F780911C0290911D02892BA9F73D
:103540008091E800877F8093E8008091E80080FF09
:10355000FCCF80910E018093F1008091E8008E777E
:10356000BCCF80911802813201F780911C029091AA
:103570001D02892BD1F68091E800877F8093E800B7
:103580000E94641D80911A0280930E010E94A7067A
:10359000089580911802813241F68091E800877F7A
:1035A0008093E8000E94641D80911B0280930202B8
:1035B000089580911802813A09F0B7CF8091E80010
:1035C000877F8093E8008091E80080FFFCCF8091A6
:1035D0000202C1CF84B7877F84BF0FB6F894A89545
:1035E00080916000886180936000109260000FBE3F
:1035F00080E890E00FB6F8948093610090936100AA
:103600000FBE0E94871808950E94B41D0E94111ECB
:10361000E2EEF0E080818460808378940E949020C4
:10362000089582E091E00E9450170895809117025A
:10363000853031F480911702853019F00E9401190C
:1036400008950E94D61880911502882399F30E944C
:103650009418882379F30E94BF1B0E94A706EACF23
:10366000A0E2B0E0E6E3FBE10C94C82080911702F1
:10367000843009F583E08093E9008091E80082FFBF
:103680001AC08091E80090E085FF09C050E040E05A
:1036900060E270E0CE0101960E94241C91E08091CE
:1036A000E8008B778093E800992329F060E2CE014F
:1036B00001960E94A011A096E2E00C94E4200E94E2
:1036C000621B0895292F33272330310521F168F437
:1036D0002130310509F449C02230310509F44AC0CE
:1036E00090E080E030E020E029C02132310581F116
:1036F00022323105A9F76330710590F7FB01EE0F17
:10370000FF1FEF5DFE4F20813181625E7E4FFB0126
:10371000808190E013C099278130910599F000973E
:1037200041F08230910589F00397D1F6ECE5F2E0A3
:1037300002C0EEE9F2E0849190E09F01FA0131834A
:1037400020830895EEE8F2E0F6CFEAE7F2E0F3CF67
:103750006330710528F6660F771FFB01E95DFE4FA8
:103760002081318189E090E0E9CF82E190E02DEF86
:1037700032E0E4CF8BE590E022EA32E0DFCF80E177
:1037800089BD82E189BD09B400FEFDCF8091D800DA
:103790008F7D8093D8008091E00082608093E0006C
:1037A0008091E00081FDFCCF0895AF92BF92CF924F
:1037B000DF92FF920F931F93CF93DF936C01EB0186
:1037C0008A010E94831DF82E811123C00115110565
:1037D00039F0F80180819181C81BD90BC80ED91E20
:1037E000B12CA12C2097A9F08091E80085FD22C082
:1037F0008091E8008E778093E80001151105A1F013
:10380000F80180819181A80EB91EB182A08285E065
:10381000F82E8F2DDF91CF911F910F91FF90DF90A8
:10382000CF90BF90AF9008950E94831D8823D1F25E
:10383000F82EEFCFF60181916F018093F10021976F
:10384000FFEFAF1ABF0ACECFAF92BF92CF92DF92F7
:10385000FF920F931F93CF93DF936C01EB018A01CB
:103860000E94831DF82E811123C00115110539F026
:10387000F80180819181C81BD90BC80ED91EB12CCB
:10388000A12C2097A9F08091E80085FD22C08091AD
:10389000E8008B778093E80001151105A1F0F8018D
:1038A00080819181A80EB91EB182A08285E0F82E98
:1038B0008F2DDF91CF911F910F91FF90DF90CF90CF
:1038C000BF90AF9008950E94831D8823D1F2F82EF7
:1038D000EFCF8091F100F60181936F012197FFEF07
:1038E000AF1ABF0ACECFFC0180911E0290911F0239
:1038F00086179707A0F06115710529F49091E800EB
:103900009E779093E80090E06115710551F4911154
:1039100008C08091E80082FF34C080E00895BC01B7
:10392000F2CF809117028823C1F18530C1F18091D7
:10393000E80083FD30C08091E80082FDEACF8091ED
:10394000E80080FFE1CF8091F3002091F200382F52
:103950006115710519F02830310558F091E02830D3
:10396000310509F090E02091E8002E772093E800DF
:10397000CBCF81918093F100615071092F5F3F4F50
:10398000E7CF80911702882341F0853041F0809184
:10399000E80083FFBECF81E0089582E0089583E0D0
:1039A0000895FC0180911E0290911F0286179707CF
:1039B000A0F06115710529F48091E8008E7780935D
:1039C000E80090E06115710551F4911108C08091F3
:1039D000E80082FF35C080E00895BC01F2CF8091FD
:1039E00017028823C9F18530C9F18091E80083FD71
:1039F00031C08091E80082FDEACF8091E80080FF2D
:103A0000E1CF8091F3002091F200382F611571050C
:103A100019F02830310558F091E02830310509F0CF
:103A200090E08091E8008E778093E800CBCF84917E
:103A30008093F1003196615071092F5F3F4FE6CFBF
:103A400080911702882341F0853041F08091E80091
:103A500083FFBDCF81E0089582E0089583E008955B
:103A6000982F973028F08F708093E90081E00895B7
:103A70009093E900242F762F50E0981731F0709141
:103A8000EC002091ED005091F00021FD02C09F5FFD
:103A9000E8CF3091EB003E7F3093EB003091ED00AA
:103AA0003D7F3093ED003091EB0031603093EB00BF
:103AB0007093EC002093ED005093F0002091EE0005
:103AC00027FDE5CF80E008958091180287FF13C09D
:103AD0008091E80082FF06C08091E8008B77809398
:103AE000E80004C0809117028111F2CF08958091FF
:103AF00017028823D9F38091E80080FFF8CF8091E6
:103B0000E8008E77ECCF2091E4003091E50095E657
:103B1000A9012091EC00822F817020FF06C08091C6
:103B2000E80080FF06C080E008952091E80022FDB3
:103B30001AC080911702882389F0853089F080911E
:103B4000EB0085FD0FC02091E4003091E5004217A5
:103B50005307F9F29150E1F684E0089582E0089568
:103B600083E0089581E008950E94231E0E942B1E89
:103B7000E0EEF0E0808181608083E8EDF0E080811C
:103B80008F77808319BCA7EDB0E08C918E7F8C93EA
:103B900080818F7E80831092160208950F931F9369
:103BA000CF93DF930E94231E0E942B1EC8EDD0E00E
:103BB00088818F77888388818068888388818F7DDA
:103BC000888319BC109217021092130210921502EA
:103BD0001092140200EE10E0F80180818B7F808348
:103BE00088818160888342E060E080E00E94301D2F
:103BF000E1EEF0E080818E7F8083E2EEF0E0808174
:103C000081608083808188608083F80180818E7FDD
:103C10008083888180618883DF91CF911F910F918C
:103C20000895E8EDF0E080818F7E8083E7EDF0E09D
:103C300080818160808384E082BF81E0809316026E
:103C40000E94CE1D0895E8EDF0E080818E7F808394
:103C50001092E20008951092DA001092E1000895A7
:103C60001F920F920FB60F9211242F933F934F93F1
:103C70005F936F937F938F939F93AF93BF93EF93D4
:103C8000FF938091E10082FF0BC08091E20082FFF0
:103C900007C08091E1008B7F8093E1000E948F201C
:103CA0008091DA0080FF19C08091D80080FF15C094
:103CB0008091DA008E7F8093DA008091D90080FFB6
:103CC00096C080E189BD82E189BD09B400FEFDCFC7
:103CD00081E0809317020E94E7198091E10080FF44
:103CE00019C08091E20080FF15C08091E2008E7FB4
:103CF0008093E2008091E20080618093E2008091F5
:103D0000D80080628093D80019BC85E080931702A8
:103D10000E94FB198091E10084FF2BC08091E2009A
:103D200084FF27C080E189BD82E189BD89B5982FD4
:103D3000917080FFFBCF8091D8008F7D8093D80059
:103D40008091E1008F7E8093E1008091E2008F7E80
:103D50008093E2008091E20081608093E200809194
:103D60001302882309F449C084E0809317020E945B
:103D7000041A8091E10083FF29C08091E20083FF53
:103D800025C08091E100877F8093E10082E08093ED
:103D90001702109213028091E1008E7F8093E10060
:103DA0008091E2008E7F8093E2008091E20080614A
:103DB0008093E20042E060E080E00E94301D80914C
:103DC000F00088608093F0000E94F819FF91EF9155
:103DD000BF91AF919F918F917F916F915F914F9123
:103DE0003F912F910F900FBE0F901F90189519BC07
:103DF000109217020E94F51970CF8091E30087FDA1
:103E000093E090931702B3CF1F920F920FB60F92C9
:103E100011242F933F934F935F936F937F938F93CF
:103E20009F93AF93BF93CF93DF93EF93FF93D09183
:103E3000E900DF708091EC00C82FC17080FDC0E800
:103E40001092E9008091F000877F8093F0007894D1
:103E50000E94481F1092E9008091F00088608093D2
:103E6000F000CD2BCF70C093E900FF91EF91DF916F
:103E7000CF91BF91AF919F918F917F916F915F9102
:103E80004F913F912F910F900FBE0F901F9018955B
:103E9000AAE2B0E0EEE4FFE10C94C72088E192E0F2
:103EA0002091F100FC012193CF01F2E080329F07C5
:103EB000B9F70E942E1A8091E80083FF1EC18091FD
:103EC0001802909119029A3008F017C1E92FF0E01A
:103ED000ED58FE4D0C94AB20803899F0823809F0F3
:103EE0000CC180911C028F70873008F006C180934E
:103EF000E9008091EB0085FB882780F91092E900AA
:103F000006C08091140290911502911182609091E7
:103F1000E800977F9093E8008093F1001092F10001
:103F20008091E8008E77E5C0882309F4D3C0823001
:103F300009F0E3C080911A028111D6C080911C0261
:103F40008F702FEF280F263008F0D7C08093E9003C
:103F50002091EB0020FFC8C0933031F48091EB003A
:103F600080628093EB00C0C09091EB0090619093D1
:103F7000EB0021E030E001C0220F8A95EAF72093A0
:103F8000EA001092EA008091EB008860EACF81118C
:103F9000B4C010911A021F778091E3008078812BC2
:103FA0008093E3008091E800877F8093E8000E947F
:103FB000641D8091E80080FFFCCF8091E300806861
:103FC0008093E30082E0111183E08093170295C093
:103FD0008058823008F091C080911A0290911B02A3
:103FE0008C3D23E09207A1F583E08A838AE28983EE
:103FF0004FB7F894DE01139620E03EE051E2E32F44
:10400000F0E050935700E49120FF03C0E295EF7079
:104010003F5FEF708E2F90E0EA30C0F0C7968D932F
:104020009D932F5F243159F74FBF8091E800877F20
:104030008093E8006AE270E0CE0101960E94731C52
:104040008091E8008B778093E80057C0C096E7CF57
:1040500060911C0270911D02AE014F5F5F4F0E9484
:104060005F1BBC01892B09F448C09091E800977F41
:104070009093E80089819A810E94D11CE1CF803819
:10408000E1F58091E800877F8093E800809113023A
:104090008093F10045CF811130C090911A02923087
:1040A00060F58091E800877F8093E8009093130289
:1040B0000E94641D80911302882311F084E005C0E2
:1040C0008091E30087FDFACF81E0809317020E9480
:1040D0000F1A13C080911A02813079F481E0933075
:1040E00009F080E0809315021092E9008091E800C9
:1040F000877F8093E8000E94641D8091E80083FF21
:104100000AC08091E800877F8093E8008091EB00EF
:1041100080628093EB00AA96E3E00C94E32008957C
:10412000CF93809117028823A1F0C091E900CF704E
:104130009091EC00892F817090FD80E8C82B10923F
:10414000E9008091E80083FD0E94481FCF70C09372
:10415000E900CF910895EE0FFF1F0590F491E02D37
:10416000099469279627692778278727782708954C
:104170002F923F924F925F926F927F928F929F9277
:10418000AF92BF92CF92DF92EF92FF920F931F9365
:10419000CF93DF93CDB7DEB7CA1BDB0B0FB6F89416
:1041A000DEBF0FBECDBF09942A88398848885F8456
:1041B0006E847D848C849B84AA84B984C884DF80C7
:1041C000EE80FD800C811B81AA81B981CE0FD11DAB
:1041D0000FB6F894DEBF0FBECDBFED010895FB0111
:1041E000DC0102C005900D9241505040D8F708956F
:1041F000FB01DC0104C08D910190801921F4415034
:104200005040C8F7881B990B0895FB01DC0102C0E0
:1042100001900D9241505040D8F70895DC0101C043
:104220006D9341505040E0F70895F999FECF92BD4B
:1042300081BDF89A992780B50895A8E1B0E042E0E1
:1042400050E00C944921262FF999FECF92BD81BDF3
:10425000F89A019700B4021639F01FBA20BD0FB6C4
:10426000F894FA9AF99A0FBE08950396272F0E94A0
:1042700024210E942321252F0E942421242F0C94E5
:1042800024210196272F0E9424210C942321DC0154
:10429000CB01FC01F999FECF06C0F2BDE1BDF89A51
:1042A000319600B40D9241505040B8F70895F894FB
:1042B000FFCF90049004C104C104F004F004F004A2
:1042C000F0046705CE05DD05DD05D612FC120313EB
:1042D000F812F8123C134F136213AF13B413F81211
:1042E000F812F812BB136C1F941F7D20941F7D20C1
:0A42F000C71FE81F7D203F204B2070
:1042FA009D0176197B19BB197919BC197A1901F82C
:10430A00D525BD2C9C7DC533323697C6343540221F
:0E431A003B6C030F033103B402CD02ED020031
:00000001FF
